{
	"Different Concepts/Structs.sol": {
		"Structs": {
			"abi": [
				{
					"inputs": [
						{
							"internalType": "address",
							"name": "",
							"type": "address"
						},
						{
							"internalType": "uint256",
							"name": "",
							"type": "uint256"
						}
					],
					"name": "CarsbyOwner",
					"outputs": [
						{
							"internalType": "string",
							"name": "model",
							"type": "string"
						},
						{
							"internalType": "uint256",
							"name": "year",
							"type": "uint256"
						},
						{
							"internalType": "address",
							"name": "owner",
							"type": "address"
						}
					],
					"stateMutability": "view",
					"type": "function"
				},
				{
					"inputs": [],
					"name": "car",
					"outputs": [
						{
							"internalType": "string",
							"name": "model",
							"type": "string"
						},
						{
							"internalType": "uint256",
							"name": "year",
							"type": "uint256"
						},
						{
							"internalType": "address",
							"name": "owner",
							"type": "address"
						}
					],
					"stateMutability": "view",
					"type": "function"
				},
				{
					"inputs": [
						{
							"internalType": "uint256",
							"name": "",
							"type": "uint256"
						}
					],
					"name": "cars",
					"outputs": [
						{
							"internalType": "string",
							"name": "model",
							"type": "string"
						},
						{
							"internalType": "uint256",
							"name": "year",
							"type": "uint256"
						},
						{
							"internalType": "address",
							"name": "owner",
							"type": "address"
						}
					],
					"stateMutability": "view",
					"type": "function"
				},
				{
					"inputs": [],
					"name": "examples",
					"outputs": [],
					"stateMutability": "nonpayable",
					"type": "function"
				}
			],
			"devdoc": {
				"kind": "dev",
				"methods": {},
				"version": 1
			},
			"evm": {
				"assembly": "    /* \"Different Concepts/Structs.sol\":247:1036  contract Structs {\r... */\n  mstore(0x40, 0x80)\n  callvalue\n  dup1\n  iszero\n  tag_1\n  jumpi\n  0x00\n  dup1\n  revert\ntag_1:\n  pop\n  dataSize(sub_0)\n  dup1\n  dataOffset(sub_0)\n  0x00\n  codecopy\n  0x00\n  return\nstop\n\nsub_0: assembly {\n        /* \"Different Concepts/Structs.sol\":247:1036  contract Structs {\r... */\n      mstore(0x40, 0x80)\n      callvalue\n      dup1\n      iszero\n      tag_1\n      jumpi\n      0x00\n      dup1\n      revert\n    tag_1:\n      pop\n      jumpi(tag_2, lt(calldatasize, 0x04))\n      shr(0xe0, calldataload(0x00))\n      dup1\n      0x2a361fa6\n      eq\n      tag_3\n      jumpi\n      dup1\n      0x335d00c2\n      eq\n      tag_4\n      jumpi\n      dup1\n      0xee26fac3\n      eq\n      tag_5\n      jumpi\n      dup1\n      0xf7746e36\n      eq\n      tag_6\n      jumpi\n    tag_2:\n      0x00\n      dup1\n      revert\n        /* \"Different Concepts/Structs.sol\":409:453  mapping(address => Car[]) public CarsbyOwner */\n    tag_3:\n      tag_7\n      0x04\n      dup1\n      calldatasize\n      sub\n      dup2\n      add\n      swap1\n      tag_8\n      swap2\n      swap1\n      tag_9\n      jump\t// in\n    tag_8:\n      tag_10\n      jump\t// in\n    tag_7:\n      mload(0x40)\n      tag_11\n      swap4\n      swap3\n      swap2\n      swap1\n      tag_12\n      jump\t// in\n    tag_11:\n      mload(0x40)\n      dup1\n      swap2\n      sub\n      swap1\n      return\n        /* \"Different Concepts/Structs.sol\":462:1033  function examples () external {\r... */\n    tag_4:\n      tag_13\n      tag_14\n      jump\t// in\n    tag_13:\n      stop\n        /* \"Different Concepts/Structs.sol\":364:378  Car public car */\n    tag_5:\n      tag_15\n      tag_16\n      jump\t// in\n    tag_15:\n      mload(0x40)\n      tag_17\n      swap4\n      swap3\n      swap2\n      swap1\n      tag_12\n      jump\t// in\n    tag_17:\n      mload(0x40)\n      dup1\n      swap2\n      sub\n      swap1\n      return\n        /* \"Different Concepts/Structs.sol\":385:402  Car[] public cars */\n    tag_6:\n      tag_18\n      0x04\n      dup1\n      calldatasize\n      sub\n      dup2\n      add\n      swap1\n      tag_19\n      swap2\n      swap1\n      tag_20\n      jump\t// in\n    tag_19:\n      tag_21\n      jump\t// in\n    tag_18:\n      mload(0x40)\n      tag_22\n      swap4\n      swap3\n      swap2\n      swap1\n      tag_12\n      jump\t// in\n    tag_22:\n      mload(0x40)\n      dup1\n      swap2\n      sub\n      swap1\n      return\n        /* \"Different Concepts/Structs.sol\":409:453  mapping(address => Car[]) public CarsbyOwner */\n    tag_10:\n      mstore(0x20, 0x04)\n      dup2\n      0x00\n      mstore\n      keccak256(0x00, 0x40)\n      dup2\n      dup2\n      sload\n      dup2\n      lt\n      tag_23\n      jumpi\n      0x00\n      dup1\n      revert\n    tag_23:\n      swap1\n      0x00\n      mstore\n      keccak256(0x00, 0x20)\n      swap1\n      0x03\n      mul\n      add\n      0x00\n      swap2\n      pop\n      swap2\n      pop\n      pop\n      dup1\n      0x00\n      add\n      dup1\n      sload\n      tag_25\n      swap1\n      tag_26\n      jump\t// in\n    tag_25:\n      dup1\n      0x1f\n      add\n      0x20\n      dup1\n      swap2\n      div\n      mul\n      0x20\n      add\n      mload(0x40)\n      swap1\n      dup2\n      add\n      0x40\n      mstore\n      dup1\n      swap3\n      swap2\n      swap1\n      dup2\n      dup2\n      mstore\n      0x20\n      add\n      dup3\n      dup1\n      sload\n      tag_27\n      swap1\n      tag_26\n      jump\t// in\n    tag_27:\n      dup1\n      iszero\n      tag_28\n      jumpi\n      dup1\n      0x1f\n      lt\n      tag_29\n      jumpi\n      0x0100\n      dup1\n      dup4\n      sload\n      div\n      mul\n      dup4\n      mstore\n      swap2\n      0x20\n      add\n      swap2\n      jump(tag_28)\n    tag_29:\n      dup3\n      add\n      swap2\n      swap1\n      0x00\n      mstore\n      keccak256(0x00, 0x20)\n      swap1\n    tag_30:\n      dup2\n      sload\n      dup2\n      mstore\n      swap1\n      0x01\n      add\n      swap1\n      0x20\n      add\n      dup1\n      dup4\n      gt\n      tag_30\n      jumpi\n      dup3\n      swap1\n      sub\n      0x1f\n      and\n      dup3\n      add\n      swap2\n    tag_28:\n      pop\n      pop\n      pop\n      pop\n      pop\n      swap1\n      dup1\n      0x01\n      add\n      sload\n      swap1\n      dup1\n      0x02\n      add\n      0x00\n      swap1\n      sload\n      swap1\n      0x0100\n      exp\n      swap1\n      div\n      0xffffffffffffffffffffffffffffffffffffffff\n      and\n      swap1\n      pop\n      dup4\n      jump\t// out\n        /* \"Different Concepts/Structs.sol\":462:1033  function examples () external {\r... */\n    tag_14:\n        /* \"Different Concepts/Structs.sol\":503:520  Car memory toyota */\n      0x00\n        /* \"Different Concepts/Structs.sol\":523:555  Car (\"Toyota\", 1990, msg.sender) */\n      mload(0x40)\n      dup1\n      0x60\n      add\n      0x40\n      mstore\n      dup1\n      mload(0x40)\n      dup1\n      0x40\n      add\n      0x40\n      mstore\n      dup1\n      0x06\n      dup2\n      mstore\n      0x20\n      add\n      0x546f796f74610000000000000000000000000000000000000000000000000000\n      dup2\n      mstore\n      pop\n      dup2\n      mstore\n      0x20\n      add\n        /* \"Different Concepts/Structs.sol\":538:542  1990 */\n      0x07c6\n        /* \"Different Concepts/Structs.sol\":523:555  Car (\"Toyota\", 1990, msg.sender) */\n      dup2\n      mstore\n      0x20\n      add\n        /* \"Different Concepts/Structs.sol\":544:554  msg.sender */\n      caller\n        /* \"Different Concepts/Structs.sol\":523:555  Car (\"Toyota\", 1990, msg.sender) */\n      0xffffffffffffffffffffffffffffffffffffffff\n      and\n      dup2\n      mstore\n      pop\n        /* \"Different Concepts/Structs.sol\":503:555  Car memory toyota = Car (\"Toyota\", 1990, msg.sender) */\n      swap1\n      pop\n        /* \"Different Concepts/Structs.sol\":566:582  Car memory lambo */\n      0x00\n        /* \"Different Concepts/Structs.sol\":585:642  Car ({model: \"Lamborghini\", year:1980, owner:msg.sender}) */\n      mload(0x40)\n      dup1\n      0x60\n      add\n      0x40\n      mstore\n      dup1\n      mload(0x40)\n      dup1\n      0x40\n      add\n      0x40\n      mstore\n      dup1\n      0x0b\n      dup2\n      mstore\n      0x20\n      add\n      0x4c616d626f726768696e69000000000000000000000000000000000000000000\n      dup2\n      mstore\n      pop\n      dup2\n      mstore\n      0x20\n      add\n        /* \"Different Concepts/Structs.sol\":618:622  1980 */\n      0x07bc\n        /* \"Different Concepts/Structs.sol\":585:642  Car ({model: \"Lamborghini\", year:1980, owner:msg.sender}) */\n      dup2\n      mstore\n      0x20\n      add\n        /* \"Different Concepts/Structs.sol\":630:640  msg.sender */\n      caller\n        /* \"Different Concepts/Structs.sol\":585:642  Car ({model: \"Lamborghini\", year:1980, owner:msg.sender}) */\n      0xffffffffffffffffffffffffffffffffffffffff\n      and\n      dup2\n      mstore\n      pop\n        /* \"Different Concepts/Structs.sol\":566:642  Car memory lambo = Car ({model: \"Lamborghini\", year:1980, owner:msg.sender}) */\n      swap1\n      pop\n        /* \"Different Concepts/Structs.sol\":653:669  Car memory tesla */\n      tag_32\n      tag_33\n      jump\t// in\n    tag_32:\n        /* \"Different Concepts/Structs.sol\":680:701  tesla.model = \"Tesla\" */\n      mload(0x40)\n      dup1\n      0x40\n      add\n      0x40\n      mstore\n      dup1\n      0x05\n      dup2\n      mstore\n      0x20\n      add\n      0x5465736c61000000000000000000000000000000000000000000000000000000\n      dup2\n      mstore\n      pop\n        /* \"Different Concepts/Structs.sol\":680:685  tesla */\n      dup2\n        /* \"Different Concepts/Structs.sol\":680:691  tesla.model */\n      0x00\n      add\n        /* \"Different Concepts/Structs.sol\":680:701  tesla.model = \"Tesla\" */\n      dup2\n      swap1\n      mstore\n      pop\n        /* \"Different Concepts/Structs.sol\":725:729  2010 */\n      0x07da\n        /* \"Different Concepts/Structs.sol\":712:717  tesla */\n      dup2\n        /* \"Different Concepts/Structs.sol\":712:722  tesla.year */\n      0x20\n      add\n        /* \"Different Concepts/Structs.sol\":712:729  tesla.year = 2010 */\n      dup2\n      dup2\n      mstore\n      pop\n      pop\n        /* \"Different Concepts/Structs.sol\":754:764  msg.sender */\n      caller\n        /* \"Different Concepts/Structs.sol\":740:745  tesla */\n      dup2\n        /* \"Different Concepts/Structs.sol\":740:751  tesla.owner */\n      0x40\n      add\n        /* \"Different Concepts/Structs.sol\":740:764  tesla.owner = msg.sender */\n      swap1\n      0xffffffffffffffffffffffffffffffffffffffff\n      and\n      swap1\n      dup2\n      0xffffffffffffffffffffffffffffffffffffffff\n      and\n      dup2\n      mstore\n      pop\n      pop\n        /* \"Different Concepts/Structs.sol\":777:781  cars */\n      0x03\n        /* \"Different Concepts/Structs.sol\":787:793  toyota */\n      dup4\n        /* \"Different Concepts/Structs.sol\":777:794  cars.push(toyota) */\n      swap1\n      dup1\n      0x01\n      dup2\n      sload\n      add\n      dup1\n      dup3\n      sstore\n      dup1\n      swap2\n      pop\n      pop\n      0x01\n      swap1\n      sub\n      swap1\n      0x00\n      mstore\n      keccak256(0x00, 0x20)\n      swap1\n      0x03\n      mul\n      add\n      0x00\n      swap1\n      swap2\n      swap1\n      swap2\n      swap1\n      swap2\n      pop\n      0x00\n      dup3\n      add\n      mload\n      dup2\n      0x00\n      add\n      swap1\n      dup1\n      mload\n      swap1\n      0x20\n      add\n      swap1\n      tag_35\n      swap3\n      swap2\n      swap1\n      tag_36\n      jump\t// in\n    tag_35:\n      pop\n      0x20\n      dup3\n      add\n      mload\n      dup2\n      0x01\n      add\n      sstore\n      0x40\n      dup3\n      add\n      mload\n      dup2\n      0x02\n      add\n      exp(0x0100, 0x00)\n      dup2\n      sload\n      dup2\n      0xffffffffffffffffffffffffffffffffffffffff\n      mul\n      not\n      and\n      swap1\n      dup4\n      0xffffffffffffffffffffffffffffffffffffffff\n      and\n      mul\n      or\n      swap1\n      sstore\n      pop\n      pop\n      pop\n        /* \"Different Concepts/Structs.sol\":805:809  cars */\n      0x03\n        /* \"Different Concepts/Structs.sol\":815:820  lambo */\n      dup3\n        /* \"Different Concepts/Structs.sol\":805:821  cars.push(lambo) */\n      swap1\n      dup1\n      0x01\n      dup2\n      sload\n      add\n      dup1\n      dup3\n      sstore\n      dup1\n      swap2\n      pop\n      pop\n      0x01\n      swap1\n      sub\n      swap1\n      0x00\n      mstore\n      keccak256(0x00, 0x20)\n      swap1\n      0x03\n      mul\n      add\n      0x00\n      swap1\n      swap2\n      swap1\n      swap2\n      swap1\n      swap2\n      pop\n      0x00\n      dup3\n      add\n      mload\n      dup2\n      0x00\n      add\n      swap1\n      dup1\n      mload\n      swap1\n      0x20\n      add\n      swap1\n      tag_38\n      swap3\n      swap2\n      swap1\n      tag_36\n      jump\t// in\n    tag_38:\n      pop\n      0x20\n      dup3\n      add\n      mload\n      dup2\n      0x01\n      add\n      sstore\n      0x40\n      dup3\n      add\n      mload\n      dup2\n      0x02\n      add\n      exp(0x0100, 0x00)\n      dup2\n      sload\n      dup2\n      0xffffffffffffffffffffffffffffffffffffffff\n      mul\n      not\n      and\n      swap1\n      dup4\n      0xffffffffffffffffffffffffffffffffffffffff\n      and\n      mul\n      or\n      swap1\n      sstore\n      pop\n      pop\n      pop\n        /* \"Different Concepts/Structs.sol\":832:836  cars */\n      0x03\n        /* \"Different Concepts/Structs.sol\":842:847  tesla */\n      dup2\n        /* \"Different Concepts/Structs.sol\":832:848  cars.push(tesla) */\n      swap1\n      dup1\n      0x01\n      dup2\n      sload\n      add\n      dup1\n      dup3\n      sstore\n      dup1\n      swap2\n      pop\n      pop\n      0x01\n      swap1\n      sub\n      swap1\n      0x00\n      mstore\n      keccak256(0x00, 0x20)\n      swap1\n      0x03\n      mul\n      add\n      0x00\n      swap1\n      swap2\n      swap1\n      swap2\n      swap1\n      swap2\n      pop\n      0x00\n      dup3\n      add\n      mload\n      dup2\n      0x00\n      add\n      swap1\n      dup1\n      mload\n      swap1\n      0x20\n      add\n      swap1\n      tag_40\n      swap3\n      swap2\n      swap1\n      tag_36\n      jump\t// in\n    tag_40:\n      pop\n      0x20\n      dup3\n      add\n      mload\n      dup2\n      0x01\n      add\n      sstore\n      0x40\n      dup3\n      add\n      mload\n      dup2\n      0x02\n      add\n      exp(0x0100, 0x00)\n      dup2\n      sload\n      dup2\n      0xffffffffffffffffffffffffffffffffffffffff\n      mul\n      not\n      and\n      swap1\n      dup4\n      0xffffffffffffffffffffffffffffffffffffffff\n      and\n      mul\n      or\n      swap1\n      sstore\n      pop\n      pop\n      pop\n        /* \"Different Concepts/Structs.sol\":861:865  cars */\n      0x03\n        /* \"Different Concepts/Structs.sol\":871:903  Car(\"Ferrari\", 2020, msg.sender) */\n      mload(0x40)\n      dup1\n      0x60\n      add\n      0x40\n      mstore\n      dup1\n      mload(0x40)\n      dup1\n      0x40\n      add\n      0x40\n      mstore\n      dup1\n      0x07\n      dup2\n      mstore\n      0x20\n      add\n      0x4665727261726900000000000000000000000000000000000000000000000000\n      dup2\n      mstore\n      pop\n      dup2\n      mstore\n      0x20\n      add\n        /* \"Different Concepts/Structs.sol\":886:890  2020 */\n      0x07e4\n        /* \"Different Concepts/Structs.sol\":871:903  Car(\"Ferrari\", 2020, msg.sender) */\n      dup2\n      mstore\n      0x20\n      add\n        /* \"Different Concepts/Structs.sol\":892:902  msg.sender */\n      caller\n        /* \"Different Concepts/Structs.sol\":871:903  Car(\"Ferrari\", 2020, msg.sender) */\n      0xffffffffffffffffffffffffffffffffffffffff\n      and\n      dup2\n      mstore\n      pop\n        /* \"Different Concepts/Structs.sol\":861:904  cars.push(Car(\"Ferrari\", 2020, msg.sender)) */\n      swap1\n      dup1\n      0x01\n      dup2\n      sload\n      add\n      dup1\n      dup3\n      sstore\n      dup1\n      swap2\n      pop\n      pop\n      0x01\n      swap1\n      sub\n      swap1\n      0x00\n      mstore\n      keccak256(0x00, 0x20)\n      swap1\n      0x03\n      mul\n      add\n      0x00\n      swap1\n      swap2\n      swap1\n      swap2\n      swap1\n      swap2\n      pop\n      0x00\n      dup3\n      add\n      mload\n      dup2\n      0x00\n      add\n      swap1\n      dup1\n      mload\n      swap1\n      0x20\n      add\n      swap1\n      tag_42\n      swap3\n      swap2\n      swap1\n      tag_36\n      jump\t// in\n    tag_42:\n      pop\n      0x20\n      dup3\n      add\n      mload\n      dup2\n      0x01\n      add\n      sstore\n      0x40\n      dup3\n      add\n      mload\n      dup2\n      0x02\n      add\n      exp(0x0100, 0x00)\n      dup2\n      sload\n      dup2\n      0xffffffffffffffffffffffffffffffffffffffff\n      mul\n      not\n      and\n      swap1\n      dup4\n      0xffffffffffffffffffffffffffffffffffffffff\n      and\n      mul\n      or\n      swap1\n      sstore\n      pop\n      pop\n      pop\n        /* \"Different Concepts/Structs.sol\":917:933  Car storage _car */\n      0x00\n        /* \"Different Concepts/Structs.sol\":936:940  cars */\n      0x03\n        /* \"Different Concepts/Structs.sol\":941:942  0 */\n      0x00\n        /* \"Different Concepts/Structs.sol\":936:943  cars[0] */\n      dup2\n      sload\n      dup2\n      lt\n      tag_43\n      jumpi\n      tag_44\n      tag_45\n      jump\t// in\n    tag_44:\n    tag_43:\n      swap1\n      0x00\n      mstore\n      keccak256(0x00, 0x20)\n      swap1\n      0x03\n      mul\n      add\n        /* \"Different Concepts/Structs.sol\":917:943  Car storage _car = cars[0] */\n      swap1\n      pop\n        /* \"Different Concepts/Structs.sol\":966:970  1999 */\n      0x07cf\n        /* \"Different Concepts/Structs.sol\":954:958  _car */\n      dup2\n        /* \"Different Concepts/Structs.sol\":954:963  _car.year */\n      0x01\n      add\n        /* \"Different Concepts/Structs.sol\":954:970  _car.year = 1999 */\n      dup2\n      swap1\n      sstore\n      pop\n        /* \"Different Concepts/Structs.sol\":988:992  _car */\n      dup1\n        /* \"Different Concepts/Structs.sol\":988:998  _car.owner */\n      0x02\n      add\n      0x00\n        /* \"Different Concepts/Structs.sol\":981:998  delete _car.owner */\n      0x0100\n      exp\n      dup2\n      sload\n      swap1\n      0xffffffffffffffffffffffffffffffffffffffff\n      mul\n      not\n      and\n      swap1\n      sstore\n        /* \"Different Concepts/Structs.sol\":1018:1022  cars */\n      0x03\n        /* \"Different Concepts/Structs.sol\":1023:1024  1 */\n      0x01\n        /* \"Different Concepts/Structs.sol\":1018:1025  cars[1] */\n      dup2\n      sload\n      dup2\n      lt\n      tag_47\n      jumpi\n      tag_48\n      tag_45\n      jump\t// in\n    tag_48:\n    tag_47:\n      swap1\n      0x00\n      mstore\n      keccak256(0x00, 0x20)\n      swap1\n      0x03\n      mul\n      add\n      0x00\n        /* \"Different Concepts/Structs.sol\":1011:1025  delete cars[1] */\n      dup1\n      dup3\n      add\n      0x00\n      tag_50\n      swap2\n      swap1\n      tag_51\n      jump\t// in\n    tag_50:\n      0x01\n      dup3\n      add\n      0x00\n      swap1\n      sstore\n      0x02\n      dup3\n      add\n      exp(0x0100, 0x00)\n      dup2\n      sload\n      swap1\n      0xffffffffffffffffffffffffffffffffffffffff\n      mul\n      not\n      and\n      swap1\n      sstore\n      pop\n      pop\n        /* \"Different Concepts/Structs.sol\":492:1033  {\r... */\n      pop\n      pop\n      pop\n      pop\n        /* \"Different Concepts/Structs.sol\":462:1033  function examples () external {\r... */\n      jump\t// out\n        /* \"Different Concepts/Structs.sol\":364:378  Car public car */\n    tag_16:\n      0x00\n      dup1\n      0x00\n      add\n      dup1\n      sload\n      tag_52\n      swap1\n      tag_26\n      jump\t// in\n    tag_52:\n      dup1\n      0x1f\n      add\n      0x20\n      dup1\n      swap2\n      div\n      mul\n      0x20\n      add\n      mload(0x40)\n      swap1\n      dup2\n      add\n      0x40\n      mstore\n      dup1\n      swap3\n      swap2\n      swap1\n      dup2\n      dup2\n      mstore\n      0x20\n      add\n      dup3\n      dup1\n      sload\n      tag_53\n      swap1\n      tag_26\n      jump\t// in\n    tag_53:\n      dup1\n      iszero\n      tag_54\n      jumpi\n      dup1\n      0x1f\n      lt\n      tag_55\n      jumpi\n      0x0100\n      dup1\n      dup4\n      sload\n      div\n      mul\n      dup4\n      mstore\n      swap2\n      0x20\n      add\n      swap2\n      jump(tag_54)\n    tag_55:\n      dup3\n      add\n      swap2\n      swap1\n      0x00\n      mstore\n      keccak256(0x00, 0x20)\n      swap1\n    tag_56:\n      dup2\n      sload\n      dup2\n      mstore\n      swap1\n      0x01\n      add\n      swap1\n      0x20\n      add\n      dup1\n      dup4\n      gt\n      tag_56\n      jumpi\n      dup3\n      swap1\n      sub\n      0x1f\n      and\n      dup3\n      add\n      swap2\n    tag_54:\n      pop\n      pop\n      pop\n      pop\n      pop\n      swap1\n      dup1\n      0x01\n      add\n      sload\n      swap1\n      dup1\n      0x02\n      add\n      0x00\n      swap1\n      sload\n      swap1\n      0x0100\n      exp\n      swap1\n      div\n      0xffffffffffffffffffffffffffffffffffffffff\n      and\n      swap1\n      pop\n      dup4\n      jump\t// out\n        /* \"Different Concepts/Structs.sol\":385:402  Car[] public cars */\n    tag_21:\n      0x03\n      dup2\n      dup2\n      sload\n      dup2\n      lt\n      tag_57\n      jumpi\n      0x00\n      dup1\n      revert\n    tag_57:\n      swap1\n      0x00\n      mstore\n      keccak256(0x00, 0x20)\n      swap1\n      0x03\n      mul\n      add\n      0x00\n      swap2\n      pop\n      swap1\n      pop\n      dup1\n      0x00\n      add\n      dup1\n      sload\n      tag_59\n      swap1\n      tag_26\n      jump\t// in\n    tag_59:\n      dup1\n      0x1f\n      add\n      0x20\n      dup1\n      swap2\n      div\n      mul\n      0x20\n      add\n      mload(0x40)\n      swap1\n      dup2\n      add\n      0x40\n      mstore\n      dup1\n      swap3\n      swap2\n      swap1\n      dup2\n      dup2\n      mstore\n      0x20\n      add\n      dup3\n      dup1\n      sload\n      tag_60\n      swap1\n      tag_26\n      jump\t// in\n    tag_60:\n      dup1\n      iszero\n      tag_61\n      jumpi\n      dup1\n      0x1f\n      lt\n      tag_62\n      jumpi\n      0x0100\n      dup1\n      dup4\n      sload\n      div\n      mul\n      dup4\n      mstore\n      swap2\n      0x20\n      add\n      swap2\n      jump(tag_61)\n    tag_62:\n      dup3\n      add\n      swap2\n      swap1\n      0x00\n      mstore\n      keccak256(0x00, 0x20)\n      swap1\n    tag_63:\n      dup2\n      sload\n      dup2\n      mstore\n      swap1\n      0x01\n      add\n      swap1\n      0x20\n      add\n      dup1\n      dup4\n      gt\n      tag_63\n      jumpi\n      dup3\n      swap1\n      sub\n      0x1f\n      and\n      dup3\n      add\n      swap2\n    tag_61:\n      pop\n      pop\n      pop\n      pop\n      pop\n      swap1\n      dup1\n      0x01\n      add\n      sload\n      swap1\n      dup1\n      0x02\n      add\n      0x00\n      swap1\n      sload\n      swap1\n      0x0100\n      exp\n      swap1\n      div\n      0xffffffffffffffffffffffffffffffffffffffff\n      and\n      swap1\n      pop\n      dup4\n      jump\t// out\n    tag_33:\n      mload(0x40)\n      dup1\n      0x60\n      add\n      0x40\n      mstore\n      dup1\n      0x60\n      dup2\n      mstore\n      0x20\n      add\n      0x00\n      dup2\n      mstore\n      0x20\n      add\n      and(0xffffffffffffffffffffffffffffffffffffffff, 0x00)\n      dup2\n      mstore\n      pop\n      swap1\n      jump\t// out\n    tag_36:\n      dup3\n      dup1\n      sload\n      tag_64\n      swap1\n      tag_26\n      jump\t// in\n    tag_64:\n      swap1\n      0x00\n      mstore\n      keccak256(0x00, 0x20)\n      swap1\n      0x1f\n      add\n      0x20\n      swap1\n      div\n      dup2\n      add\n      swap3\n      dup3\n      tag_66\n      jumpi\n      0x00\n      dup6\n      sstore\n      jump(tag_65)\n    tag_66:\n      dup3\n      0x1f\n      lt\n      tag_67\n      jumpi\n      dup1\n      mload\n      not(0xff)\n      and\n      dup4\n      dup1\n      add\n      or\n      dup6\n      sstore\n      jump(tag_65)\n    tag_67:\n      dup3\n      dup1\n      add\n      0x01\n      add\n      dup6\n      sstore\n      dup3\n      iszero\n      tag_65\n      jumpi\n      swap2\n      dup3\n      add\n    tag_68:\n      dup3\n      dup2\n      gt\n      iszero\n      tag_69\n      jumpi\n      dup3\n      mload\n      dup3\n      sstore\n      swap2\n      0x20\n      add\n      swap2\n      swap1\n      0x01\n      add\n      swap1\n      jump(tag_68)\n    tag_69:\n    tag_65:\n      pop\n      swap1\n      pop\n      tag_70\n      swap2\n      swap1\n      tag_71\n      jump\t// in\n    tag_70:\n      pop\n      swap1\n      jump\t// out\n    tag_51:\n      pop\n      dup1\n      sload\n      tag_72\n      swap1\n      tag_26\n      jump\t// in\n    tag_72:\n      0x00\n      dup3\n      sstore\n      dup1\n      0x1f\n      lt\n      tag_74\n      jumpi\n      pop\n      jump(tag_73)\n    tag_74:\n      0x1f\n      add\n      0x20\n      swap1\n      div\n      swap1\n      0x00\n      mstore\n      keccak256(0x00, 0x20)\n      swap1\n      dup2\n      add\n      swap1\n      tag_75\n      swap2\n      swap1\n      tag_71\n      jump\t// in\n    tag_75:\n    tag_73:\n      pop\n      jump\t// out\n    tag_71:\n    tag_76:\n      dup1\n      dup3\n      gt\n      iszero\n      tag_77\n      jumpi\n      0x00\n      dup2\n      0x00\n      swap1\n      sstore\n      pop\n      0x01\n      add\n      jump(tag_76)\n    tag_77:\n      pop\n      swap1\n      jump\t// out\n        /* \"#utility.yul\":7:146   */\n    tag_79:\n        /* \"#utility.yul\":53:58   */\n      0x00\n        /* \"#utility.yul\":91:97   */\n      dup2\n        /* \"#utility.yul\":78:98   */\n      calldataload\n        /* \"#utility.yul\":69:98   */\n      swap1\n      pop\n        /* \"#utility.yul\":107:140   */\n      tag_81\n        /* \"#utility.yul\":134:139   */\n      dup2\n        /* \"#utility.yul\":107:140   */\n      tag_82\n      jump\t// in\n    tag_81:\n        /* \"#utility.yul\":7:146   */\n      swap3\n      swap2\n      pop\n      pop\n      jump\t// out\n        /* \"#utility.yul\":152:291   */\n    tag_83:\n        /* \"#utility.yul\":198:203   */\n      0x00\n        /* \"#utility.yul\":236:242   */\n      dup2\n        /* \"#utility.yul\":223:243   */\n      calldataload\n        /* \"#utility.yul\":214:243   */\n      swap1\n      pop\n        /* \"#utility.yul\":252:285   */\n      tag_85\n        /* \"#utility.yul\":279:284   */\n      dup2\n        /* \"#utility.yul\":252:285   */\n      tag_86\n      jump\t// in\n    tag_85:\n        /* \"#utility.yul\":152:291   */\n      swap3\n      swap2\n      pop\n      pop\n      jump\t// out\n        /* \"#utility.yul\":297:771   */\n    tag_9:\n        /* \"#utility.yul\":365:371   */\n      0x00\n        /* \"#utility.yul\":373:379   */\n      dup1\n        /* \"#utility.yul\":422:424   */\n      0x40\n        /* \"#utility.yul\":410:419   */\n      dup4\n        /* \"#utility.yul\":401:408   */\n      dup6\n        /* \"#utility.yul\":397:420   */\n      sub\n        /* \"#utility.yul\":393:425   */\n      slt\n        /* \"#utility.yul\":390:509   */\n      iszero\n      tag_88\n      jumpi\n        /* \"#utility.yul\":428:507   */\n      tag_89\n      tag_90\n      jump\t// in\n    tag_89:\n        /* \"#utility.yul\":390:509   */\n    tag_88:\n        /* \"#utility.yul\":548:549   */\n      0x00\n        /* \"#utility.yul\":573:626   */\n      tag_91\n        /* \"#utility.yul\":618:625   */\n      dup6\n        /* \"#utility.yul\":609:615   */\n      dup3\n        /* \"#utility.yul\":598:607   */\n      dup7\n        /* \"#utility.yul\":594:616   */\n      add\n        /* \"#utility.yul\":573:626   */\n      tag_79\n      jump\t// in\n    tag_91:\n        /* \"#utility.yul\":563:626   */\n      swap3\n      pop\n        /* \"#utility.yul\":519:636   */\n      pop\n        /* \"#utility.yul\":675:677   */\n      0x20\n        /* \"#utility.yul\":701:754   */\n      tag_92\n        /* \"#utility.yul\":746:753   */\n      dup6\n        /* \"#utility.yul\":737:743   */\n      dup3\n        /* \"#utility.yul\":726:735   */\n      dup7\n        /* \"#utility.yul\":722:744   */\n      add\n        /* \"#utility.yul\":701:754   */\n      tag_83\n      jump\t// in\n    tag_92:\n        /* \"#utility.yul\":691:754   */\n      swap2\n      pop\n        /* \"#utility.yul\":646:764   */\n      pop\n        /* \"#utility.yul\":297:771   */\n      swap3\n      pop\n      swap3\n      swap1\n      pop\n      jump\t// out\n        /* \"#utility.yul\":777:1106   */\n    tag_20:\n        /* \"#utility.yul\":836:842   */\n      0x00\n        /* \"#utility.yul\":885:887   */\n      0x20\n        /* \"#utility.yul\":873:882   */\n      dup3\n        /* \"#utility.yul\":864:871   */\n      dup5\n        /* \"#utility.yul\":860:883   */\n      sub\n        /* \"#utility.yul\":856:888   */\n      slt\n        /* \"#utility.yul\":853:972   */\n      iszero\n      tag_94\n      jumpi\n        /* \"#utility.yul\":891:970   */\n      tag_95\n      tag_90\n      jump\t// in\n    tag_95:\n        /* \"#utility.yul\":853:972   */\n    tag_94:\n        /* \"#utility.yul\":1011:1012   */\n      0x00\n        /* \"#utility.yul\":1036:1089   */\n      tag_96\n        /* \"#utility.yul\":1081:1088   */\n      dup5\n        /* \"#utility.yul\":1072:1078   */\n      dup3\n        /* \"#utility.yul\":1061:1070   */\n      dup6\n        /* \"#utility.yul\":1057:1079   */\n      add\n        /* \"#utility.yul\":1036:1089   */\n      tag_83\n      jump\t// in\n    tag_96:\n        /* \"#utility.yul\":1026:1089   */\n      swap2\n      pop\n        /* \"#utility.yul\":982:1099   */\n      pop\n        /* \"#utility.yul\":777:1106   */\n      swap3\n      swap2\n      pop\n      pop\n      jump\t// out\n        /* \"#utility.yul\":1112:1230   */\n    tag_97:\n        /* \"#utility.yul\":1199:1223   */\n      tag_99\n        /* \"#utility.yul\":1217:1222   */\n      dup2\n        /* \"#utility.yul\":1199:1223   */\n      tag_100\n      jump\t// in\n    tag_99:\n        /* \"#utility.yul\":1194:1197   */\n      dup3\n        /* \"#utility.yul\":1187:1224   */\n      mstore\n        /* \"#utility.yul\":1112:1230   */\n      pop\n      pop\n      jump\t// out\n        /* \"#utility.yul\":1236:1600   */\n    tag_101:\n        /* \"#utility.yul\":1324:1327   */\n      0x00\n        /* \"#utility.yul\":1352:1391   */\n      tag_103\n        /* \"#utility.yul\":1385:1390   */\n      dup3\n        /* \"#utility.yul\":1352:1391   */\n      tag_104\n      jump\t// in\n    tag_103:\n        /* \"#utility.yul\":1407:1478   */\n      tag_105\n        /* \"#utility.yul\":1471:1477   */\n      dup2\n        /* \"#utility.yul\":1466:1469   */\n      dup6\n        /* \"#utility.yul\":1407:1478   */\n      tag_106\n      jump\t// in\n    tag_105:\n        /* \"#utility.yul\":1400:1478   */\n      swap4\n      pop\n        /* \"#utility.yul\":1487:1539   */\n      tag_107\n        /* \"#utility.yul\":1532:1538   */\n      dup2\n        /* \"#utility.yul\":1527:1530   */\n      dup6\n        /* \"#utility.yul\":1520:1524   */\n      0x20\n        /* \"#utility.yul\":1513:1518   */\n      dup7\n        /* \"#utility.yul\":1509:1525   */\n      add\n        /* \"#utility.yul\":1487:1539   */\n      tag_108\n      jump\t// in\n    tag_107:\n        /* \"#utility.yul\":1564:1593   */\n      tag_109\n        /* \"#utility.yul\":1586:1592   */\n      dup2\n        /* \"#utility.yul\":1564:1593   */\n      tag_110\n      jump\t// in\n    tag_109:\n        /* \"#utility.yul\":1559:1562   */\n      dup5\n        /* \"#utility.yul\":1555:1594   */\n      add\n        /* \"#utility.yul\":1548:1594   */\n      swap2\n      pop\n        /* \"#utility.yul\":1328:1600   */\n      pop\n        /* \"#utility.yul\":1236:1600   */\n      swap3\n      swap2\n      pop\n      pop\n      jump\t// out\n        /* \"#utility.yul\":1606:1724   */\n    tag_111:\n        /* \"#utility.yul\":1693:1717   */\n      tag_113\n        /* \"#utility.yul\":1711:1716   */\n      dup2\n        /* \"#utility.yul\":1693:1717   */\n      tag_114\n      jump\t// in\n    tag_113:\n        /* \"#utility.yul\":1688:1691   */\n      dup3\n        /* \"#utility.yul\":1681:1718   */\n      mstore\n        /* \"#utility.yul\":1606:1724   */\n      pop\n      pop\n      jump\t// out\n        /* \"#utility.yul\":1730:2263   */\n    tag_12:\n        /* \"#utility.yul\":1899:1903   */\n      0x00\n        /* \"#utility.yul\":1937:1939   */\n      0x60\n        /* \"#utility.yul\":1926:1935   */\n      dup3\n        /* \"#utility.yul\":1922:1940   */\n      add\n        /* \"#utility.yul\":1914:1940   */\n      swap1\n      pop\n        /* \"#utility.yul\":1986:1995   */\n      dup2\n        /* \"#utility.yul\":1980:1984   */\n      dup2\n        /* \"#utility.yul\":1976:1996   */\n      sub\n        /* \"#utility.yul\":1972:1973   */\n      0x00\n        /* \"#utility.yul\":1961:1970   */\n      dup4\n        /* \"#utility.yul\":1957:1974   */\n      add\n        /* \"#utility.yul\":1950:1997   */\n      mstore\n        /* \"#utility.yul\":2014:2092   */\n      tag_116\n        /* \"#utility.yul\":2087:2091   */\n      dup2\n        /* \"#utility.yul\":2078:2084   */\n      dup7\n        /* \"#utility.yul\":2014:2092   */\n      tag_101\n      jump\t// in\n    tag_116:\n        /* \"#utility.yul\":2006:2092   */\n      swap1\n      pop\n        /* \"#utility.yul\":2102:2174   */\n      tag_117\n        /* \"#utility.yul\":2170:2172   */\n      0x20\n        /* \"#utility.yul\":2159:2168   */\n      dup4\n        /* \"#utility.yul\":2155:2173   */\n      add\n        /* \"#utility.yul\":2146:2152   */\n      dup6\n        /* \"#utility.yul\":2102:2174   */\n      tag_111\n      jump\t// in\n    tag_117:\n        /* \"#utility.yul\":2184:2256   */\n      tag_118\n        /* \"#utility.yul\":2252:2254   */\n      0x40\n        /* \"#utility.yul\":2241:2250   */\n      dup4\n        /* \"#utility.yul\":2237:2255   */\n      add\n        /* \"#utility.yul\":2228:2234   */\n      dup5\n        /* \"#utility.yul\":2184:2256   */\n      tag_97\n      jump\t// in\n    tag_118:\n        /* \"#utility.yul\":1730:2263   */\n      swap5\n      swap4\n      pop\n      pop\n      pop\n      pop\n      jump\t// out\n        /* \"#utility.yul\":2350:2449   */\n    tag_104:\n        /* \"#utility.yul\":2402:2408   */\n      0x00\n        /* \"#utility.yul\":2436:2441   */\n      dup2\n        /* \"#utility.yul\":2430:2442   */\n      mload\n        /* \"#utility.yul\":2420:2442   */\n      swap1\n      pop\n        /* \"#utility.yul\":2350:2449   */\n      swap2\n      swap1\n      pop\n      jump\t// out\n        /* \"#utility.yul\":2455:2624   */\n    tag_106:\n        /* \"#utility.yul\":2539:2550   */\n      0x00\n        /* \"#utility.yul\":2573:2579   */\n      dup3\n        /* \"#utility.yul\":2568:2571   */\n      dup3\n        /* \"#utility.yul\":2561:2580   */\n      mstore\n        /* \"#utility.yul\":2613:2617   */\n      0x20\n        /* \"#utility.yul\":2608:2611   */\n      dup3\n        /* \"#utility.yul\":2604:2618   */\n      add\n        /* \"#utility.yul\":2589:2618   */\n      swap1\n      pop\n        /* \"#utility.yul\":2455:2624   */\n      swap3\n      swap2\n      pop\n      pop\n      jump\t// out\n        /* \"#utility.yul\":2630:2726   */\n    tag_100:\n        /* \"#utility.yul\":2667:2674   */\n      0x00\n        /* \"#utility.yul\":2696:2720   */\n      tag_124\n        /* \"#utility.yul\":2714:2719   */\n      dup3\n        /* \"#utility.yul\":2696:2720   */\n      tag_125\n      jump\t// in\n    tag_124:\n        /* \"#utility.yul\":2685:2720   */\n      swap1\n      pop\n        /* \"#utility.yul\":2630:2726   */\n      swap2\n      swap1\n      pop\n      jump\t// out\n        /* \"#utility.yul\":2732:2858   */\n    tag_125:\n        /* \"#utility.yul\":2769:2776   */\n      0x00\n        /* \"#utility.yul\":2809:2851   */\n      0xffffffffffffffffffffffffffffffffffffffff\n        /* \"#utility.yul\":2802:2807   */\n      dup3\n        /* \"#utility.yul\":2798:2852   */\n      and\n        /* \"#utility.yul\":2787:2852   */\n      swap1\n      pop\n        /* \"#utility.yul\":2732:2858   */\n      swap2\n      swap1\n      pop\n      jump\t// out\n        /* \"#utility.yul\":2864:2941   */\n    tag_114:\n        /* \"#utility.yul\":2901:2908   */\n      0x00\n        /* \"#utility.yul\":2930:2935   */\n      dup2\n        /* \"#utility.yul\":2919:2935   */\n      swap1\n      pop\n        /* \"#utility.yul\":2864:2941   */\n      swap2\n      swap1\n      pop\n      jump\t// out\n        /* \"#utility.yul\":2947:3254   */\n    tag_108:\n        /* \"#utility.yul\":3015:3016   */\n      0x00\n        /* \"#utility.yul\":3025:3138   */\n    tag_129:\n        /* \"#utility.yul\":3039:3045   */\n      dup4\n        /* \"#utility.yul\":3036:3037   */\n      dup2\n        /* \"#utility.yul\":3033:3046   */\n      lt\n        /* \"#utility.yul\":3025:3138   */\n      iszero\n      tag_131\n      jumpi\n        /* \"#utility.yul\":3124:3125   */\n      dup1\n        /* \"#utility.yul\":3119:3122   */\n      dup3\n        /* \"#utility.yul\":3115:3126   */\n      add\n        /* \"#utility.yul\":3109:3127   */\n      mload\n        /* \"#utility.yul\":3105:3106   */\n      dup2\n        /* \"#utility.yul\":3100:3103   */\n      dup5\n        /* \"#utility.yul\":3096:3107   */\n      add\n        /* \"#utility.yul\":3089:3128   */\n      mstore\n        /* \"#utility.yul\":3061:3063   */\n      0x20\n        /* \"#utility.yul\":3058:3059   */\n      dup2\n        /* \"#utility.yul\":3054:3064   */\n      add\n        /* \"#utility.yul\":3049:3064   */\n      swap1\n      pop\n        /* \"#utility.yul\":3025:3138   */\n      jump(tag_129)\n    tag_131:\n        /* \"#utility.yul\":3156:3162   */\n      dup4\n        /* \"#utility.yul\":3153:3154   */\n      dup2\n        /* \"#utility.yul\":3150:3163   */\n      gt\n        /* \"#utility.yul\":3147:3248   */\n      iszero\n      tag_132\n      jumpi\n        /* \"#utility.yul\":3236:3237   */\n      0x00\n        /* \"#utility.yul\":3227:3233   */\n      dup5\n        /* \"#utility.yul\":3222:3225   */\n      dup5\n        /* \"#utility.yul\":3218:3234   */\n      add\n        /* \"#utility.yul\":3211:3238   */\n      mstore\n        /* \"#utility.yul\":3147:3248   */\n    tag_132:\n        /* \"#utility.yul\":2996:3254   */\n      pop\n        /* \"#utility.yul\":2947:3254   */\n      pop\n      pop\n      pop\n      jump\t// out\n        /* \"#utility.yul\":3260:3580   */\n    tag_26:\n        /* \"#utility.yul\":3304:3310   */\n      0x00\n        /* \"#utility.yul\":3341:3342   */\n      0x02\n        /* \"#utility.yul\":3335:3339   */\n      dup3\n        /* \"#utility.yul\":3331:3343   */\n      div\n        /* \"#utility.yul\":3321:3343   */\n      swap1\n      pop\n        /* \"#utility.yul\":3388:3389   */\n      0x01\n        /* \"#utility.yul\":3382:3386   */\n      dup3\n        /* \"#utility.yul\":3378:3390   */\n      and\n        /* \"#utility.yul\":3409:3427   */\n      dup1\n        /* \"#utility.yul\":3399:3480   */\n      tag_134\n      jumpi\n        /* \"#utility.yul\":3465:3469   */\n      0x7f\n        /* \"#utility.yul\":3457:3463   */\n      dup3\n        /* \"#utility.yul\":3453:3470   */\n      and\n        /* \"#utility.yul\":3443:3470   */\n      swap2\n      pop\n        /* \"#utility.yul\":3399:3480   */\n    tag_134:\n        /* \"#utility.yul\":3527:3529   */\n      0x20\n        /* \"#utility.yul\":3519:3525   */\n      dup3\n        /* \"#utility.yul\":3516:3530   */\n      lt\n        /* \"#utility.yul\":3496:3514   */\n      dup2\n        /* \"#utility.yul\":3493:3531   */\n      eq\n        /* \"#utility.yul\":3490:3574   */\n      iszero\n      tag_135\n      jumpi\n        /* \"#utility.yul\":3546:3564   */\n      tag_136\n      tag_137\n      jump\t// in\n    tag_136:\n        /* \"#utility.yul\":3490:3574   */\n    tag_135:\n        /* \"#utility.yul\":3311:3580   */\n      pop\n        /* \"#utility.yul\":3260:3580   */\n      swap2\n      swap1\n      pop\n      jump\t// out\n        /* \"#utility.yul\":3586:3766   */\n    tag_137:\n        /* \"#utility.yul\":3634:3711   */\n      0x4e487b7100000000000000000000000000000000000000000000000000000000\n        /* \"#utility.yul\":3631:3632   */\n      0x00\n        /* \"#utility.yul\":3624:3712   */\n      mstore\n        /* \"#utility.yul\":3731:3735   */\n      0x22\n        /* \"#utility.yul\":3728:3729   */\n      0x04\n        /* \"#utility.yul\":3721:3736   */\n      mstore\n        /* \"#utility.yul\":3755:3759   */\n      0x24\n        /* \"#utility.yul\":3752:3753   */\n      0x00\n        /* \"#utility.yul\":3745:3760   */\n      revert\n        /* \"#utility.yul\":3772:3952   */\n    tag_45:\n        /* \"#utility.yul\":3820:3897   */\n      0x4e487b7100000000000000000000000000000000000000000000000000000000\n        /* \"#utility.yul\":3817:3818   */\n      0x00\n        /* \"#utility.yul\":3810:3898   */\n      mstore\n        /* \"#utility.yul\":3917:3921   */\n      0x32\n        /* \"#utility.yul\":3914:3915   */\n      0x04\n        /* \"#utility.yul\":3907:3922   */\n      mstore\n        /* \"#utility.yul\":3941:3945   */\n      0x24\n        /* \"#utility.yul\":3938:3939   */\n      0x00\n        /* \"#utility.yul\":3931:3946   */\n      revert\n        /* \"#utility.yul\":4081:4198   */\n    tag_90:\n        /* \"#utility.yul\":4190:4191   */\n      0x00\n        /* \"#utility.yul\":4187:4188   */\n      dup1\n        /* \"#utility.yul\":4180:4192   */\n      revert\n        /* \"#utility.yul\":4204:4306   */\n    tag_110:\n        /* \"#utility.yul\":4245:4251   */\n      0x00\n        /* \"#utility.yul\":4296:4298   */\n      0x1f\n        /* \"#utility.yul\":4292:4299   */\n      not\n        /* \"#utility.yul\":4287:4289   */\n      0x1f\n        /* \"#utility.yul\":4280:4285   */\n      dup4\n        /* \"#utility.yul\":4276:4290   */\n      add\n        /* \"#utility.yul\":4272:4300   */\n      and\n        /* \"#utility.yul\":4262:4300   */\n      swap1\n      pop\n        /* \"#utility.yul\":4204:4306   */\n      swap2\n      swap1\n      pop\n      jump\t// out\n        /* \"#utility.yul\":4312:4434   */\n    tag_82:\n        /* \"#utility.yul\":4385:4409   */\n      tag_145\n        /* \"#utility.yul\":4403:4408   */\n      dup2\n        /* \"#utility.yul\":4385:4409   */\n      tag_100\n      jump\t// in\n    tag_145:\n        /* \"#utility.yul\":4378:4383   */\n      dup2\n        /* \"#utility.yul\":4375:4410   */\n      eq\n        /* \"#utility.yul\":4365:4428   */\n      tag_146\n      jumpi\n        /* \"#utility.yul\":4424:4425   */\n      0x00\n        /* \"#utility.yul\":4421:4422   */\n      dup1\n        /* \"#utility.yul\":4414:4426   */\n      revert\n        /* \"#utility.yul\":4365:4428   */\n    tag_146:\n        /* \"#utility.yul\":4312:4434   */\n      pop\n      jump\t// out\n        /* \"#utility.yul\":4440:4562   */\n    tag_86:\n        /* \"#utility.yul\":4513:4537   */\n      tag_148\n        /* \"#utility.yul\":4531:4536   */\n      dup2\n        /* \"#utility.yul\":4513:4537   */\n      tag_114\n      jump\t// in\n    tag_148:\n        /* \"#utility.yul\":4506:4511   */\n      dup2\n        /* \"#utility.yul\":4503:4538   */\n      eq\n        /* \"#utility.yul\":4493:4556   */\n      tag_149\n      jumpi\n        /* \"#utility.yul\":4552:4553   */\n      0x00\n        /* \"#utility.yul\":4549:4550   */\n      dup1\n        /* \"#utility.yul\":4542:4554   */\n      revert\n        /* \"#utility.yul\":4493:4556   */\n    tag_149:\n        /* \"#utility.yul\":4440:4562   */\n      pop\n      jump\t// out\n\n    auxdata: 0xa26469706673582212204844f380da87f532819c0566743438b8baf5b45d9eca40f7dfbab070c1f3039064736f6c63430008070033\n}\n",
				"bytecode": {
					"linkReferences": {},
					"object": "608060405234801561001057600080fd5b50610c48806100206000396000f3fe608060405234801561001057600080fd5b506004361061004c5760003560e01c80632a361fa614610051578063335d00c214610083578063ee26fac31461008d578063f7746e36146100ad575b600080fd5b61006b600480360381019061006691906109b1565b6100df565b60405161007a93929190610a75565b60405180910390f35b61008b6101ce565b005b6100956106cb565b6040516100a493929190610a75565b60405180910390f35b6100c760048036038101906100c291906109f1565b61078b565b6040516100d693929190610a75565b60405180910390f35b600460205281600052604060002081815481106100fb57600080fd5b90600052602060002090600302016000915091505080600001805461011f90610b3e565b80601f016020809104026020016040519081016040528092919081815260200182805461014b90610b3e565b80156101985780601f1061016d57610100808354040283529160200191610198565b820191906000526020600020905b81548152906001019060200180831161017b57829003601f168201915b5050505050908060010154908060020160009054906101000a900473ffffffffffffffffffffffffffffffffffffffff16905083565b600060405180606001604052806040518060400160405280600681526020017f546f796f7461000000000000000000000000000000000000000000000000000081525081526020016107c681526020013373ffffffffffffffffffffffffffffffffffffffff168152509050600060405180606001604052806040518060400160405280600b81526020017f4c616d626f726768696e6900000000000000000000000000000000000000000081525081526020016107bc81526020013373ffffffffffffffffffffffffffffffffffffffff1681525090506102ae61086d565b6040518060400160405280600581526020017f5465736c6100000000000000000000000000000000000000000000000000000081525081600001819052506107da81602001818152505033816040019073ffffffffffffffffffffffffffffffffffffffff16908173ffffffffffffffffffffffffffffffffffffffff1681525050600383908060018154018082558091505060019003906000526020600020906003020160009091909190915060008201518160000190805190602001906103789291906108a4565b506020820151816001015560408201518160020160006101000a81548173ffffffffffffffffffffffffffffffffffffffff021916908373ffffffffffffffffffffffffffffffffffffffff1602179055505050600382908060018154018082558091505060019003906000526020600020906003020160009091909190915060008201518160000190805190602001906104149291906108a4565b506020820151816001015560408201518160020160006101000a81548173ffffffffffffffffffffffffffffffffffffffff021916908373ffffffffffffffffffffffffffffffffffffffff1602179055505050600381908060018154018082558091505060019003906000526020600020906003020160009091909190915060008201518160000190805190602001906104b09291906108a4565b506020820151816001015560408201518160020160006101000a81548173ffffffffffffffffffffffffffffffffffffffff021916908373ffffffffffffffffffffffffffffffffffffffff1602179055505050600360405180606001604052806040518060400160405280600781526020017f466572726172690000000000000000000000000000000000000000000000000081525081526020016107e481526020013373ffffffffffffffffffffffffffffffffffffffff16815250908060018154018082558091505060019003906000526020600020906003020160009091909190915060008201518160000190805190602001906105b39291906108a4565b506020820151816001015560408201518160020160006101000a81548173ffffffffffffffffffffffffffffffffffffffff021916908373ffffffffffffffffffffffffffffffffffffffff16021790555050506000600360008154811061061e5761061d610b9f565b5b906000526020600020906003020190506107cf81600101819055508060020160006101000a81549073ffffffffffffffffffffffffffffffffffffffff0219169055600360018154811061067557610674610b9f565b5b906000526020600020906003020160008082016000610694919061092a565b60018201600090556002820160006101000a81549073ffffffffffffffffffffffffffffffffffffffff0219169055505050505050565b60008060000180546106dc90610b3e565b80601f016020809104026020016040519081016040528092919081815260200182805461070890610b3e565b80156107555780601f1061072a57610100808354040283529160200191610755565b820191906000526020600020905b81548152906001019060200180831161073857829003601f168201915b5050505050908060010154908060020160009054906101000a900473ffffffffffffffffffffffffffffffffffffffff16905083565b6003818154811061079b57600080fd5b90600052602060002090600302016000915090508060000180546107be90610b3e565b80601f01602080910402602001604051908101604052809291908181526020018280546107ea90610b3e565b80156108375780601f1061080c57610100808354040283529160200191610837565b820191906000526020600020905b81548152906001019060200180831161081a57829003601f168201915b5050505050908060010154908060020160009054906101000a900473ffffffffffffffffffffffffffffffffffffffff16905083565b60405180606001604052806060815260200160008152602001600073ffffffffffffffffffffffffffffffffffffffff1681525090565b8280546108b090610b3e565b90600052602060002090601f0160209004810192826108d25760008555610919565b82601f106108eb57805160ff1916838001178555610919565b82800160010185558215610919579182015b828111156109185782518255916020019190600101906108fd565b5b509050610926919061096a565b5090565b50805461093690610b3e565b6000825580601f106109485750610967565b601f016020900490600052602060002090810190610966919061096a565b5b50565b5b8082111561098357600081600090555060010161096b565b5090565b60008135905061099681610be4565b92915050565b6000813590506109ab81610bfb565b92915050565b600080604083850312156109c8576109c7610bce565b5b60006109d685828601610987565b92505060206109e78582860161099c565b9150509250929050565b600060208284031215610a0757610a06610bce565b5b6000610a158482850161099c565b91505092915050565b610a2781610acf565b82525050565b6000610a3882610ab3565b610a428185610abe565b9350610a52818560208601610b0b565b610a5b81610bd3565b840191505092915050565b610a6f81610b01565b82525050565b60006060820190508181036000830152610a8f8186610a2d565b9050610a9e6020830185610a66565b610aab6040830184610a1e565b949350505050565b600081519050919050565b600082825260208201905092915050565b6000610ada82610ae1565b9050919050565b600073ffffffffffffffffffffffffffffffffffffffff82169050919050565b6000819050919050565b60005b83811015610b29578082015181840152602081019050610b0e565b83811115610b38576000848401525b50505050565b60006002820490506001821680610b5657607f821691505b60208210811415610b6a57610b69610b70565b5b50919050565b7f4e487b7100000000000000000000000000000000000000000000000000000000600052602260045260246000fd5b7f4e487b7100000000000000000000000000000000000000000000000000000000600052603260045260246000fd5b600080fd5b6000601f19601f8301169050919050565b610bed81610acf565b8114610bf857600080fd5b50565b610c0481610b01565b8114610c0f57600080fd5b5056fea26469706673582212204844f380da87f532819c0566743438b8baf5b45d9eca40f7dfbab070c1f3039064736f6c63430008070033",
					"opcodes": "PUSH1 0x80 PUSH1 0x40 MSTORE CALLVALUE DUP1 ISZERO PUSH2 0x10 JUMPI PUSH1 0x0 DUP1 REVERT JUMPDEST POP PUSH2 0xC48 DUP1 PUSH2 0x20 PUSH1 0x0 CODECOPY PUSH1 0x0 RETURN INVALID PUSH1 0x80 PUSH1 0x40 MSTORE CALLVALUE DUP1 ISZERO PUSH2 0x10 JUMPI PUSH1 0x0 DUP1 REVERT JUMPDEST POP PUSH1 0x4 CALLDATASIZE LT PUSH2 0x4C JUMPI PUSH1 0x0 CALLDATALOAD PUSH1 0xE0 SHR DUP1 PUSH4 0x2A361FA6 EQ PUSH2 0x51 JUMPI DUP1 PUSH4 0x335D00C2 EQ PUSH2 0x83 JUMPI DUP1 PUSH4 0xEE26FAC3 EQ PUSH2 0x8D JUMPI DUP1 PUSH4 0xF7746E36 EQ PUSH2 0xAD JUMPI JUMPDEST PUSH1 0x0 DUP1 REVERT JUMPDEST PUSH2 0x6B PUSH1 0x4 DUP1 CALLDATASIZE SUB DUP2 ADD SWAP1 PUSH2 0x66 SWAP2 SWAP1 PUSH2 0x9B1 JUMP JUMPDEST PUSH2 0xDF JUMP JUMPDEST PUSH1 0x40 MLOAD PUSH2 0x7A SWAP4 SWAP3 SWAP2 SWAP1 PUSH2 0xA75 JUMP JUMPDEST PUSH1 0x40 MLOAD DUP1 SWAP2 SUB SWAP1 RETURN JUMPDEST PUSH2 0x8B PUSH2 0x1CE JUMP JUMPDEST STOP JUMPDEST PUSH2 0x95 PUSH2 0x6CB JUMP JUMPDEST PUSH1 0x40 MLOAD PUSH2 0xA4 SWAP4 SWAP3 SWAP2 SWAP1 PUSH2 0xA75 JUMP JUMPDEST PUSH1 0x40 MLOAD DUP1 SWAP2 SUB SWAP1 RETURN JUMPDEST PUSH2 0xC7 PUSH1 0x4 DUP1 CALLDATASIZE SUB DUP2 ADD SWAP1 PUSH2 0xC2 SWAP2 SWAP1 PUSH2 0x9F1 JUMP JUMPDEST PUSH2 0x78B JUMP JUMPDEST PUSH1 0x40 MLOAD PUSH2 0xD6 SWAP4 SWAP3 SWAP2 SWAP1 PUSH2 0xA75 JUMP JUMPDEST PUSH1 0x40 MLOAD DUP1 SWAP2 SUB SWAP1 RETURN JUMPDEST PUSH1 0x4 PUSH1 0x20 MSTORE DUP2 PUSH1 0x0 MSTORE PUSH1 0x40 PUSH1 0x0 KECCAK256 DUP2 DUP2 SLOAD DUP2 LT PUSH2 0xFB JUMPI PUSH1 0x0 DUP1 REVERT JUMPDEST SWAP1 PUSH1 0x0 MSTORE PUSH1 0x20 PUSH1 0x0 KECCAK256 SWAP1 PUSH1 0x3 MUL ADD PUSH1 0x0 SWAP2 POP SWAP2 POP POP DUP1 PUSH1 0x0 ADD DUP1 SLOAD PUSH2 0x11F SWAP1 PUSH2 0xB3E JUMP JUMPDEST DUP1 PUSH1 0x1F ADD PUSH1 0x20 DUP1 SWAP2 DIV MUL PUSH1 0x20 ADD PUSH1 0x40 MLOAD SWAP1 DUP2 ADD PUSH1 0x40 MSTORE DUP1 SWAP3 SWAP2 SWAP1 DUP2 DUP2 MSTORE PUSH1 0x20 ADD DUP3 DUP1 SLOAD PUSH2 0x14B SWAP1 PUSH2 0xB3E JUMP JUMPDEST DUP1 ISZERO PUSH2 0x198 JUMPI DUP1 PUSH1 0x1F LT PUSH2 0x16D JUMPI PUSH2 0x100 DUP1 DUP4 SLOAD DIV MUL DUP4 MSTORE SWAP2 PUSH1 0x20 ADD SWAP2 PUSH2 0x198 JUMP JUMPDEST DUP3 ADD SWAP2 SWAP1 PUSH1 0x0 MSTORE PUSH1 0x20 PUSH1 0x0 KECCAK256 SWAP1 JUMPDEST DUP2 SLOAD DUP2 MSTORE SWAP1 PUSH1 0x1 ADD SWAP1 PUSH1 0x20 ADD DUP1 DUP4 GT PUSH2 0x17B JUMPI DUP3 SWAP1 SUB PUSH1 0x1F AND DUP3 ADD SWAP2 JUMPDEST POP POP POP POP POP SWAP1 DUP1 PUSH1 0x1 ADD SLOAD SWAP1 DUP1 PUSH1 0x2 ADD PUSH1 0x0 SWAP1 SLOAD SWAP1 PUSH2 0x100 EXP SWAP1 DIV PUSH20 0xFFFFFFFFFFFFFFFFFFFFFFFFFFFFFFFFFFFFFFFF AND SWAP1 POP DUP4 JUMP JUMPDEST PUSH1 0x0 PUSH1 0x40 MLOAD DUP1 PUSH1 0x60 ADD PUSH1 0x40 MSTORE DUP1 PUSH1 0x40 MLOAD DUP1 PUSH1 0x40 ADD PUSH1 0x40 MSTORE DUP1 PUSH1 0x6 DUP2 MSTORE PUSH1 0x20 ADD PUSH32 0x546F796F74610000000000000000000000000000000000000000000000000000 DUP2 MSTORE POP DUP2 MSTORE PUSH1 0x20 ADD PUSH2 0x7C6 DUP2 MSTORE PUSH1 0x20 ADD CALLER PUSH20 0xFFFFFFFFFFFFFFFFFFFFFFFFFFFFFFFFFFFFFFFF AND DUP2 MSTORE POP SWAP1 POP PUSH1 0x0 PUSH1 0x40 MLOAD DUP1 PUSH1 0x60 ADD PUSH1 0x40 MSTORE DUP1 PUSH1 0x40 MLOAD DUP1 PUSH1 0x40 ADD PUSH1 0x40 MSTORE DUP1 PUSH1 0xB DUP2 MSTORE PUSH1 0x20 ADD PUSH32 0x4C616D626F726768696E69000000000000000000000000000000000000000000 DUP2 MSTORE POP DUP2 MSTORE PUSH1 0x20 ADD PUSH2 0x7BC DUP2 MSTORE PUSH1 0x20 ADD CALLER PUSH20 0xFFFFFFFFFFFFFFFFFFFFFFFFFFFFFFFFFFFFFFFF AND DUP2 MSTORE POP SWAP1 POP PUSH2 0x2AE PUSH2 0x86D JUMP JUMPDEST PUSH1 0x40 MLOAD DUP1 PUSH1 0x40 ADD PUSH1 0x40 MSTORE DUP1 PUSH1 0x5 DUP2 MSTORE PUSH1 0x20 ADD PUSH32 0x5465736C61000000000000000000000000000000000000000000000000000000 DUP2 MSTORE POP DUP2 PUSH1 0x0 ADD DUP2 SWAP1 MSTORE POP PUSH2 0x7DA DUP2 PUSH1 0x20 ADD DUP2 DUP2 MSTORE POP POP CALLER DUP2 PUSH1 0x40 ADD SWAP1 PUSH20 0xFFFFFFFFFFFFFFFFFFFFFFFFFFFFFFFFFFFFFFFF AND SWAP1 DUP2 PUSH20 0xFFFFFFFFFFFFFFFFFFFFFFFFFFFFFFFFFFFFFFFF AND DUP2 MSTORE POP POP PUSH1 0x3 DUP4 SWAP1 DUP1 PUSH1 0x1 DUP2 SLOAD ADD DUP1 DUP3 SSTORE DUP1 SWAP2 POP POP PUSH1 0x1 SWAP1 SUB SWAP1 PUSH1 0x0 MSTORE PUSH1 0x20 PUSH1 0x0 KECCAK256 SWAP1 PUSH1 0x3 MUL ADD PUSH1 0x0 SWAP1 SWAP2 SWAP1 SWAP2 SWAP1 SWAP2 POP PUSH1 0x0 DUP3 ADD MLOAD DUP2 PUSH1 0x0 ADD SWAP1 DUP1 MLOAD SWAP1 PUSH1 0x20 ADD SWAP1 PUSH2 0x378 SWAP3 SWAP2 SWAP1 PUSH2 0x8A4 JUMP JUMPDEST POP PUSH1 0x20 DUP3 ADD MLOAD DUP2 PUSH1 0x1 ADD SSTORE PUSH1 0x40 DUP3 ADD MLOAD DUP2 PUSH1 0x2 ADD PUSH1 0x0 PUSH2 0x100 EXP DUP2 SLOAD DUP2 PUSH20 0xFFFFFFFFFFFFFFFFFFFFFFFFFFFFFFFFFFFFFFFF MUL NOT AND SWAP1 DUP4 PUSH20 0xFFFFFFFFFFFFFFFFFFFFFFFFFFFFFFFFFFFFFFFF AND MUL OR SWAP1 SSTORE POP POP POP PUSH1 0x3 DUP3 SWAP1 DUP1 PUSH1 0x1 DUP2 SLOAD ADD DUP1 DUP3 SSTORE DUP1 SWAP2 POP POP PUSH1 0x1 SWAP1 SUB SWAP1 PUSH1 0x0 MSTORE PUSH1 0x20 PUSH1 0x0 KECCAK256 SWAP1 PUSH1 0x3 MUL ADD PUSH1 0x0 SWAP1 SWAP2 SWAP1 SWAP2 SWAP1 SWAP2 POP PUSH1 0x0 DUP3 ADD MLOAD DUP2 PUSH1 0x0 ADD SWAP1 DUP1 MLOAD SWAP1 PUSH1 0x20 ADD SWAP1 PUSH2 0x414 SWAP3 SWAP2 SWAP1 PUSH2 0x8A4 JUMP JUMPDEST POP PUSH1 0x20 DUP3 ADD MLOAD DUP2 PUSH1 0x1 ADD SSTORE PUSH1 0x40 DUP3 ADD MLOAD DUP2 PUSH1 0x2 ADD PUSH1 0x0 PUSH2 0x100 EXP DUP2 SLOAD DUP2 PUSH20 0xFFFFFFFFFFFFFFFFFFFFFFFFFFFFFFFFFFFFFFFF MUL NOT AND SWAP1 DUP4 PUSH20 0xFFFFFFFFFFFFFFFFFFFFFFFFFFFFFFFFFFFFFFFF AND MUL OR SWAP1 SSTORE POP POP POP PUSH1 0x3 DUP2 SWAP1 DUP1 PUSH1 0x1 DUP2 SLOAD ADD DUP1 DUP3 SSTORE DUP1 SWAP2 POP POP PUSH1 0x1 SWAP1 SUB SWAP1 PUSH1 0x0 MSTORE PUSH1 0x20 PUSH1 0x0 KECCAK256 SWAP1 PUSH1 0x3 MUL ADD PUSH1 0x0 SWAP1 SWAP2 SWAP1 SWAP2 SWAP1 SWAP2 POP PUSH1 0x0 DUP3 ADD MLOAD DUP2 PUSH1 0x0 ADD SWAP1 DUP1 MLOAD SWAP1 PUSH1 0x20 ADD SWAP1 PUSH2 0x4B0 SWAP3 SWAP2 SWAP1 PUSH2 0x8A4 JUMP JUMPDEST POP PUSH1 0x20 DUP3 ADD MLOAD DUP2 PUSH1 0x1 ADD SSTORE PUSH1 0x40 DUP3 ADD MLOAD DUP2 PUSH1 0x2 ADD PUSH1 0x0 PUSH2 0x100 EXP DUP2 SLOAD DUP2 PUSH20 0xFFFFFFFFFFFFFFFFFFFFFFFFFFFFFFFFFFFFFFFF MUL NOT AND SWAP1 DUP4 PUSH20 0xFFFFFFFFFFFFFFFFFFFFFFFFFFFFFFFFFFFFFFFF AND MUL OR SWAP1 SSTORE POP POP POP PUSH1 0x3 PUSH1 0x40 MLOAD DUP1 PUSH1 0x60 ADD PUSH1 0x40 MSTORE DUP1 PUSH1 0x40 MLOAD DUP1 PUSH1 0x40 ADD PUSH1 0x40 MSTORE DUP1 PUSH1 0x7 DUP2 MSTORE PUSH1 0x20 ADD PUSH32 0x4665727261726900000000000000000000000000000000000000000000000000 DUP2 MSTORE POP DUP2 MSTORE PUSH1 0x20 ADD PUSH2 0x7E4 DUP2 MSTORE PUSH1 0x20 ADD CALLER PUSH20 0xFFFFFFFFFFFFFFFFFFFFFFFFFFFFFFFFFFFFFFFF AND DUP2 MSTORE POP SWAP1 DUP1 PUSH1 0x1 DUP2 SLOAD ADD DUP1 DUP3 SSTORE DUP1 SWAP2 POP POP PUSH1 0x1 SWAP1 SUB SWAP1 PUSH1 0x0 MSTORE PUSH1 0x20 PUSH1 0x0 KECCAK256 SWAP1 PUSH1 0x3 MUL ADD PUSH1 0x0 SWAP1 SWAP2 SWAP1 SWAP2 SWAP1 SWAP2 POP PUSH1 0x0 DUP3 ADD MLOAD DUP2 PUSH1 0x0 ADD SWAP1 DUP1 MLOAD SWAP1 PUSH1 0x20 ADD SWAP1 PUSH2 0x5B3 SWAP3 SWAP2 SWAP1 PUSH2 0x8A4 JUMP JUMPDEST POP PUSH1 0x20 DUP3 ADD MLOAD DUP2 PUSH1 0x1 ADD SSTORE PUSH1 0x40 DUP3 ADD MLOAD DUP2 PUSH1 0x2 ADD PUSH1 0x0 PUSH2 0x100 EXP DUP2 SLOAD DUP2 PUSH20 0xFFFFFFFFFFFFFFFFFFFFFFFFFFFFFFFFFFFFFFFF MUL NOT AND SWAP1 DUP4 PUSH20 0xFFFFFFFFFFFFFFFFFFFFFFFFFFFFFFFFFFFFFFFF AND MUL OR SWAP1 SSTORE POP POP POP PUSH1 0x0 PUSH1 0x3 PUSH1 0x0 DUP2 SLOAD DUP2 LT PUSH2 0x61E JUMPI PUSH2 0x61D PUSH2 0xB9F JUMP JUMPDEST JUMPDEST SWAP1 PUSH1 0x0 MSTORE PUSH1 0x20 PUSH1 0x0 KECCAK256 SWAP1 PUSH1 0x3 MUL ADD SWAP1 POP PUSH2 0x7CF DUP2 PUSH1 0x1 ADD DUP2 SWAP1 SSTORE POP DUP1 PUSH1 0x2 ADD PUSH1 0x0 PUSH2 0x100 EXP DUP2 SLOAD SWAP1 PUSH20 0xFFFFFFFFFFFFFFFFFFFFFFFFFFFFFFFFFFFFFFFF MUL NOT AND SWAP1 SSTORE PUSH1 0x3 PUSH1 0x1 DUP2 SLOAD DUP2 LT PUSH2 0x675 JUMPI PUSH2 0x674 PUSH2 0xB9F JUMP JUMPDEST JUMPDEST SWAP1 PUSH1 0x0 MSTORE PUSH1 0x20 PUSH1 0x0 KECCAK256 SWAP1 PUSH1 0x3 MUL ADD PUSH1 0x0 DUP1 DUP3 ADD PUSH1 0x0 PUSH2 0x694 SWAP2 SWAP1 PUSH2 0x92A JUMP JUMPDEST PUSH1 0x1 DUP3 ADD PUSH1 0x0 SWAP1 SSTORE PUSH1 0x2 DUP3 ADD PUSH1 0x0 PUSH2 0x100 EXP DUP2 SLOAD SWAP1 PUSH20 0xFFFFFFFFFFFFFFFFFFFFFFFFFFFFFFFFFFFFFFFF MUL NOT AND SWAP1 SSTORE POP POP POP POP POP POP JUMP JUMPDEST PUSH1 0x0 DUP1 PUSH1 0x0 ADD DUP1 SLOAD PUSH2 0x6DC SWAP1 PUSH2 0xB3E JUMP JUMPDEST DUP1 PUSH1 0x1F ADD PUSH1 0x20 DUP1 SWAP2 DIV MUL PUSH1 0x20 ADD PUSH1 0x40 MLOAD SWAP1 DUP2 ADD PUSH1 0x40 MSTORE DUP1 SWAP3 SWAP2 SWAP1 DUP2 DUP2 MSTORE PUSH1 0x20 ADD DUP3 DUP1 SLOAD PUSH2 0x708 SWAP1 PUSH2 0xB3E JUMP JUMPDEST DUP1 ISZERO PUSH2 0x755 JUMPI DUP1 PUSH1 0x1F LT PUSH2 0x72A JUMPI PUSH2 0x100 DUP1 DUP4 SLOAD DIV MUL DUP4 MSTORE SWAP2 PUSH1 0x20 ADD SWAP2 PUSH2 0x755 JUMP JUMPDEST DUP3 ADD SWAP2 SWAP1 PUSH1 0x0 MSTORE PUSH1 0x20 PUSH1 0x0 KECCAK256 SWAP1 JUMPDEST DUP2 SLOAD DUP2 MSTORE SWAP1 PUSH1 0x1 ADD SWAP1 PUSH1 0x20 ADD DUP1 DUP4 GT PUSH2 0x738 JUMPI DUP3 SWAP1 SUB PUSH1 0x1F AND DUP3 ADD SWAP2 JUMPDEST POP POP POP POP POP SWAP1 DUP1 PUSH1 0x1 ADD SLOAD SWAP1 DUP1 PUSH1 0x2 ADD PUSH1 0x0 SWAP1 SLOAD SWAP1 PUSH2 0x100 EXP SWAP1 DIV PUSH20 0xFFFFFFFFFFFFFFFFFFFFFFFFFFFFFFFFFFFFFFFF AND SWAP1 POP DUP4 JUMP JUMPDEST PUSH1 0x3 DUP2 DUP2 SLOAD DUP2 LT PUSH2 0x79B JUMPI PUSH1 0x0 DUP1 REVERT JUMPDEST SWAP1 PUSH1 0x0 MSTORE PUSH1 0x20 PUSH1 0x0 KECCAK256 SWAP1 PUSH1 0x3 MUL ADD PUSH1 0x0 SWAP2 POP SWAP1 POP DUP1 PUSH1 0x0 ADD DUP1 SLOAD PUSH2 0x7BE SWAP1 PUSH2 0xB3E JUMP JUMPDEST DUP1 PUSH1 0x1F ADD PUSH1 0x20 DUP1 SWAP2 DIV MUL PUSH1 0x20 ADD PUSH1 0x40 MLOAD SWAP1 DUP2 ADD PUSH1 0x40 MSTORE DUP1 SWAP3 SWAP2 SWAP1 DUP2 DUP2 MSTORE PUSH1 0x20 ADD DUP3 DUP1 SLOAD PUSH2 0x7EA SWAP1 PUSH2 0xB3E JUMP JUMPDEST DUP1 ISZERO PUSH2 0x837 JUMPI DUP1 PUSH1 0x1F LT PUSH2 0x80C JUMPI PUSH2 0x100 DUP1 DUP4 SLOAD DIV MUL DUP4 MSTORE SWAP2 PUSH1 0x20 ADD SWAP2 PUSH2 0x837 JUMP JUMPDEST DUP3 ADD SWAP2 SWAP1 PUSH1 0x0 MSTORE PUSH1 0x20 PUSH1 0x0 KECCAK256 SWAP1 JUMPDEST DUP2 SLOAD DUP2 MSTORE SWAP1 PUSH1 0x1 ADD SWAP1 PUSH1 0x20 ADD DUP1 DUP4 GT PUSH2 0x81A JUMPI DUP3 SWAP1 SUB PUSH1 0x1F AND DUP3 ADD SWAP2 JUMPDEST POP POP POP POP POP SWAP1 DUP1 PUSH1 0x1 ADD SLOAD SWAP1 DUP1 PUSH1 0x2 ADD PUSH1 0x0 SWAP1 SLOAD SWAP1 PUSH2 0x100 EXP SWAP1 DIV PUSH20 0xFFFFFFFFFFFFFFFFFFFFFFFFFFFFFFFFFFFFFFFF AND SWAP1 POP DUP4 JUMP JUMPDEST PUSH1 0x40 MLOAD DUP1 PUSH1 0x60 ADD PUSH1 0x40 MSTORE DUP1 PUSH1 0x60 DUP2 MSTORE PUSH1 0x20 ADD PUSH1 0x0 DUP2 MSTORE PUSH1 0x20 ADD PUSH1 0x0 PUSH20 0xFFFFFFFFFFFFFFFFFFFFFFFFFFFFFFFFFFFFFFFF AND DUP2 MSTORE POP SWAP1 JUMP JUMPDEST DUP3 DUP1 SLOAD PUSH2 0x8B0 SWAP1 PUSH2 0xB3E JUMP JUMPDEST SWAP1 PUSH1 0x0 MSTORE PUSH1 0x20 PUSH1 0x0 KECCAK256 SWAP1 PUSH1 0x1F ADD PUSH1 0x20 SWAP1 DIV DUP2 ADD SWAP3 DUP3 PUSH2 0x8D2 JUMPI PUSH1 0x0 DUP6 SSTORE PUSH2 0x919 JUMP JUMPDEST DUP3 PUSH1 0x1F LT PUSH2 0x8EB JUMPI DUP1 MLOAD PUSH1 0xFF NOT AND DUP4 DUP1 ADD OR DUP6 SSTORE PUSH2 0x919 JUMP JUMPDEST DUP3 DUP1 ADD PUSH1 0x1 ADD DUP6 SSTORE DUP3 ISZERO PUSH2 0x919 JUMPI SWAP2 DUP3 ADD JUMPDEST DUP3 DUP2 GT ISZERO PUSH2 0x918 JUMPI DUP3 MLOAD DUP3 SSTORE SWAP2 PUSH1 0x20 ADD SWAP2 SWAP1 PUSH1 0x1 ADD SWAP1 PUSH2 0x8FD JUMP JUMPDEST JUMPDEST POP SWAP1 POP PUSH2 0x926 SWAP2 SWAP1 PUSH2 0x96A JUMP JUMPDEST POP SWAP1 JUMP JUMPDEST POP DUP1 SLOAD PUSH2 0x936 SWAP1 PUSH2 0xB3E JUMP JUMPDEST PUSH1 0x0 DUP3 SSTORE DUP1 PUSH1 0x1F LT PUSH2 0x948 JUMPI POP PUSH2 0x967 JUMP JUMPDEST PUSH1 0x1F ADD PUSH1 0x20 SWAP1 DIV SWAP1 PUSH1 0x0 MSTORE PUSH1 0x20 PUSH1 0x0 KECCAK256 SWAP1 DUP2 ADD SWAP1 PUSH2 0x966 SWAP2 SWAP1 PUSH2 0x96A JUMP JUMPDEST JUMPDEST POP JUMP JUMPDEST JUMPDEST DUP1 DUP3 GT ISZERO PUSH2 0x983 JUMPI PUSH1 0x0 DUP2 PUSH1 0x0 SWAP1 SSTORE POP PUSH1 0x1 ADD PUSH2 0x96B JUMP JUMPDEST POP SWAP1 JUMP JUMPDEST PUSH1 0x0 DUP2 CALLDATALOAD SWAP1 POP PUSH2 0x996 DUP2 PUSH2 0xBE4 JUMP JUMPDEST SWAP3 SWAP2 POP POP JUMP JUMPDEST PUSH1 0x0 DUP2 CALLDATALOAD SWAP1 POP PUSH2 0x9AB DUP2 PUSH2 0xBFB JUMP JUMPDEST SWAP3 SWAP2 POP POP JUMP JUMPDEST PUSH1 0x0 DUP1 PUSH1 0x40 DUP4 DUP6 SUB SLT ISZERO PUSH2 0x9C8 JUMPI PUSH2 0x9C7 PUSH2 0xBCE JUMP JUMPDEST JUMPDEST PUSH1 0x0 PUSH2 0x9D6 DUP6 DUP3 DUP7 ADD PUSH2 0x987 JUMP JUMPDEST SWAP3 POP POP PUSH1 0x20 PUSH2 0x9E7 DUP6 DUP3 DUP7 ADD PUSH2 0x99C JUMP JUMPDEST SWAP2 POP POP SWAP3 POP SWAP3 SWAP1 POP JUMP JUMPDEST PUSH1 0x0 PUSH1 0x20 DUP3 DUP5 SUB SLT ISZERO PUSH2 0xA07 JUMPI PUSH2 0xA06 PUSH2 0xBCE JUMP JUMPDEST JUMPDEST PUSH1 0x0 PUSH2 0xA15 DUP5 DUP3 DUP6 ADD PUSH2 0x99C JUMP JUMPDEST SWAP2 POP POP SWAP3 SWAP2 POP POP JUMP JUMPDEST PUSH2 0xA27 DUP2 PUSH2 0xACF JUMP JUMPDEST DUP3 MSTORE POP POP JUMP JUMPDEST PUSH1 0x0 PUSH2 0xA38 DUP3 PUSH2 0xAB3 JUMP JUMPDEST PUSH2 0xA42 DUP2 DUP6 PUSH2 0xABE JUMP JUMPDEST SWAP4 POP PUSH2 0xA52 DUP2 DUP6 PUSH1 0x20 DUP7 ADD PUSH2 0xB0B JUMP JUMPDEST PUSH2 0xA5B DUP2 PUSH2 0xBD3 JUMP JUMPDEST DUP5 ADD SWAP2 POP POP SWAP3 SWAP2 POP POP JUMP JUMPDEST PUSH2 0xA6F DUP2 PUSH2 0xB01 JUMP JUMPDEST DUP3 MSTORE POP POP JUMP JUMPDEST PUSH1 0x0 PUSH1 0x60 DUP3 ADD SWAP1 POP DUP2 DUP2 SUB PUSH1 0x0 DUP4 ADD MSTORE PUSH2 0xA8F DUP2 DUP7 PUSH2 0xA2D JUMP JUMPDEST SWAP1 POP PUSH2 0xA9E PUSH1 0x20 DUP4 ADD DUP6 PUSH2 0xA66 JUMP JUMPDEST PUSH2 0xAAB PUSH1 0x40 DUP4 ADD DUP5 PUSH2 0xA1E JUMP JUMPDEST SWAP5 SWAP4 POP POP POP POP JUMP JUMPDEST PUSH1 0x0 DUP2 MLOAD SWAP1 POP SWAP2 SWAP1 POP JUMP JUMPDEST PUSH1 0x0 DUP3 DUP3 MSTORE PUSH1 0x20 DUP3 ADD SWAP1 POP SWAP3 SWAP2 POP POP JUMP JUMPDEST PUSH1 0x0 PUSH2 0xADA DUP3 PUSH2 0xAE1 JUMP JUMPDEST SWAP1 POP SWAP2 SWAP1 POP JUMP JUMPDEST PUSH1 0x0 PUSH20 0xFFFFFFFFFFFFFFFFFFFFFFFFFFFFFFFFFFFFFFFF DUP3 AND SWAP1 POP SWAP2 SWAP1 POP JUMP JUMPDEST PUSH1 0x0 DUP2 SWAP1 POP SWAP2 SWAP1 POP JUMP JUMPDEST PUSH1 0x0 JUMPDEST DUP4 DUP2 LT ISZERO PUSH2 0xB29 JUMPI DUP1 DUP3 ADD MLOAD DUP2 DUP5 ADD MSTORE PUSH1 0x20 DUP2 ADD SWAP1 POP PUSH2 0xB0E JUMP JUMPDEST DUP4 DUP2 GT ISZERO PUSH2 0xB38 JUMPI PUSH1 0x0 DUP5 DUP5 ADD MSTORE JUMPDEST POP POP POP POP JUMP JUMPDEST PUSH1 0x0 PUSH1 0x2 DUP3 DIV SWAP1 POP PUSH1 0x1 DUP3 AND DUP1 PUSH2 0xB56 JUMPI PUSH1 0x7F DUP3 AND SWAP2 POP JUMPDEST PUSH1 0x20 DUP3 LT DUP2 EQ ISZERO PUSH2 0xB6A JUMPI PUSH2 0xB69 PUSH2 0xB70 JUMP JUMPDEST JUMPDEST POP SWAP2 SWAP1 POP JUMP JUMPDEST PUSH32 0x4E487B7100000000000000000000000000000000000000000000000000000000 PUSH1 0x0 MSTORE PUSH1 0x22 PUSH1 0x4 MSTORE PUSH1 0x24 PUSH1 0x0 REVERT JUMPDEST PUSH32 0x4E487B7100000000000000000000000000000000000000000000000000000000 PUSH1 0x0 MSTORE PUSH1 0x32 PUSH1 0x4 MSTORE PUSH1 0x24 PUSH1 0x0 REVERT JUMPDEST PUSH1 0x0 DUP1 REVERT JUMPDEST PUSH1 0x0 PUSH1 0x1F NOT PUSH1 0x1F DUP4 ADD AND SWAP1 POP SWAP2 SWAP1 POP JUMP JUMPDEST PUSH2 0xBED DUP2 PUSH2 0xACF JUMP JUMPDEST DUP2 EQ PUSH2 0xBF8 JUMPI PUSH1 0x0 DUP1 REVERT JUMPDEST POP JUMP JUMPDEST PUSH2 0xC04 DUP2 PUSH2 0xB01 JUMP JUMPDEST DUP2 EQ PUSH2 0xC0F JUMPI PUSH1 0x0 DUP1 REVERT JUMPDEST POP JUMP INVALID LOG2 PUSH5 0x6970667358 0x22 SLT KECCAK256 BASEFEE DIFFICULTY RETURN DUP1 0xDA DUP8 CREATE2 ORIGIN DUP2 SWAP13 SDIV PUSH7 0x743438B8BAF5B4 0x5D SWAP15 0xCA BLOCKHASH 0xF7 0xDF 0xBA 0xB0 PUSH17 0xC1F3039064736F6C634300080700330000 "
				},
				"gasEstimates": {
					"creation": {
						"codeDepositCost": "628800",
						"executionCost": "664",
						"totalCost": "629464"
					},
					"external": {
						"CarsbyOwner(address,uint256)": "infinite",
						"car()": "infinite",
						"cars(uint256)": "infinite",
						"examples()": "infinite"
					}
				},
				"methodIdentifiers": {
					"CarsbyOwner(address,uint256)": "2a361fa6",
					"car()": "ee26fac3",
					"cars(uint256)": "f7746e36",
					"examples()": "335d00c2"
				}
			},
			"storageLayout": {
				"storage": [
					{
						"astId": 11,
						"contract": "Different Concepts/Structs.sol:Structs",
						"label": "car",
						"offset": 0,
						"slot": "0",
						"type": "t_struct(Car)8_storage"
					},
					{
						"astId": 15,
						"contract": "Different Concepts/Structs.sol:Structs",
						"label": "cars",
						"offset": 0,
						"slot": "3",
						"type": "t_array(t_struct(Car)8_storage)dyn_storage"
					},
					{
						"astId": 21,
						"contract": "Different Concepts/Structs.sol:Structs",
						"label": "CarsbyOwner",
						"offset": 0,
						"slot": "4",
						"type": "t_mapping(t_address,t_array(t_struct(Car)8_storage)dyn_storage)"
					}
				],
				"types": {
					"t_address": {
						"encoding": "inplace",
						"label": "address",
						"numberOfBytes": "20"
					},
					"t_array(t_struct(Car)8_storage)dyn_storage": {
						"base": "t_struct(Car)8_storage",
						"encoding": "dynamic_array",
						"label": "struct Structs.Car[]",
						"numberOfBytes": "32"
					},
					"t_mapping(t_address,t_array(t_struct(Car)8_storage)dyn_storage)": {
						"encoding": "mapping",
						"key": "t_address",
						"label": "mapping(address => struct Structs.Car[])",
						"numberOfBytes": "32",
						"value": "t_array(t_struct(Car)8_storage)dyn_storage"
					},
					"t_string_storage": {
						"encoding": "bytes",
						"label": "string",
						"numberOfBytes": "32"
					},
					"t_struct(Car)8_storage": {
						"encoding": "inplace",
						"label": "struct Structs.Car",
						"members": [
							{
								"astId": 3,
								"contract": "Different Concepts/Structs.sol:Structs",
								"label": "model",
								"offset": 0,
								"slot": "0",
								"type": "t_string_storage"
							},
							{
								"astId": 5,
								"contract": "Different Concepts/Structs.sol:Structs",
								"label": "year",
								"offset": 0,
								"slot": "1",
								"type": "t_uint256"
							},
							{
								"astId": 7,
								"contract": "Different Concepts/Structs.sol:Structs",
								"label": "owner",
								"offset": 0,
								"slot": "2",
								"type": "t_address"
							}
						],
						"numberOfBytes": "96"
					},
					"t_uint256": {
						"encoding": "inplace",
						"label": "uint256",
						"numberOfBytes": "32"
					}
				}
			},
			"userdoc": {
				"kind": "user",
				"methods": {},
				"version": 1
			}
		}
	}
}